{
  "jsonrpc": "2.0",
  "result": {
    "blockHash": "0xe38a894f7f9669608ab6e08e0b1f25af8e210f3324bf09cca84d12f5db36687c",
    "blockNumber": "0x2e1ae1",
    "creates": null,
    "from": "0x1e0029dd89465497ad61b14409f73656446337f9",
    "gas": "0x9c40",
    "gasPrice": "0x4a817c800",
    "hash": "0xb3580482ded1d4ee6733861af7676210494a53dac5633dc509cb5544ad9822ff",
    "input": "0x",
    "networkId": 61,
    "nonce": "0xe0",
    "publicKey": "0x7ac35ec4a59a772186573ed9d26787889cde2042110572ddf79a1f9ef2c7bc28b55b35d4fc5497c50e90cdf53b5a6be6174c456d98ba479a86ff4753d652fba3",
    "r": "0x9873696b852c34c3da10dda993f02eb800892e30cb5acacd335d47109e73e51b",
    "raw": "0xf86e81e08504a817c800829c4094b09cbe4f7e845184d8c6e4607cd816bfc9bc08d3880dea26692060e80080819da09873696b852c34c3da10dda993f02eb800892e30cb5acacd335d47109e73e51ba045adb2148a0f37d30d0a2b4ac3bf4ec0f4d8b938181b45635f02e054ae750759",
    "s": "0x45adb2148a0f37d30d0a2b4ac3bf4ec0f4d8b938181b45635f02e054ae750759",
    "standardV": "0x0",
    "to": "0xb09cbe4f7e845184d8c6e4607cd816bfc9bc08d3",
    "transactionIndex": "0x15",
    "v": "0x9d",
    "value": "0xdea26692060e800"
  },
  "id": 1
}