{
  "jsonrpc": "2.0",
  "result": {
    "blockHash": "0x2c83b485b4e9211e2296b4cafd4f19f7dcb16c24430c187d37e6d93f8fd4a802",
    "blockNumber": "0x1a3fa7",
    "creates": null,
    "from": "0xed059bc543141c8c93031d545079b3da0233b27f",
    "gas": "0x03d090",
    "gasPrice": "0x059b9b95f0",
    "hash": "0x19442fe5e9e4f4819b7090298f1f108f2a1cca1f2167a413c771d6574fa34a31",
    "input": "0x667a2f58",
    "nonce": "0x3ca4",
    "raw": "0xf86b823ca485059b9b95f08303d090948b3b3b624c3c0397d3da8fd861512393d51dcbac8084667a2f581ca0d7ddf1368fa81f6092ec15734000f911501af11876ef908a418f015030503a64a039837b1d2ee9c8ee011f44407927b540df893884eef98f67b164c8cafb82061b",
    "to": "0x8b3b3b624c3c0397d3da8fd861512393d51dcbac",
    "transactionIndex": "0x04",
    "value": "0x00"
  },
  "id": 1
}