{
  "jsonrpc": "2.0",
  "result": {
    "blockHash": "0xa270c7663f9fffa93fd631768c57ad62f2c614d3dc472b3c4494826a1a5c3d8a",
    "blockNumber": "0x2e1ae2",
    "creates": null,
    "from": "0xb7819ff807d9d52a9ce5d713dc7053e8871e077b",
    "gas": "0xdbba0",
    "gasPrice": "0x4a817c800",
    "hash": "0x5c7851f4b2dc93860ed5a6624a422d4f17975d41c68667b64453de3ffaa8af49",
    "input": "0xa9059cbb00000000000000000000000014dd45d07d1d700579a9b7cfb3a4536890aafdc20000000000000000000000000000000000000000000000000000000001ca3c98",
    "networkId": null,
    "nonce": "0xe",
    "publicKey": "0x2d4fa87b8e395b5e3f9ff674e0ec109e32d9db99b2b20387cf2f2079c9c041aa2199a67390b8696457020e0aae324cfd1b5e21f86a17683b8afd3660c3ed8c01",
    "r": "0xe28800dc73a56b5c687ad6b38789f5a485a5ead8236b3d1fc04143fbc1b12c40",
    "raw": "0xf8aa0e8504a817c800830dbba09457d90b64a1a57749b0f932f1a3395792e12e705501b844a9059cbb00000000000000000000000014dd45d07d1d700579a9b7cfb3a4536890aafdc20000000000000000000000000000000000000000000000000000000001ca3c981ba0e28800dc73a56b5c687ad6b38789f5a485a5ead8236b3d1fc04143fbc1b12c40a0690014487d34d1881461f89edf6662e2efb833f08c5d6913bace4289f2f7736e",
    "s": "0x690014487d34d1881461f89edf6662e2efb833f08c5d6913bace4289f2f7736e",
    "standardV": "0x0",
    "to": "0x57d90b64a1a57749b0f932f1a3395792e12e7055",
    "transactionIndex": "0x0",
    "v": "0x1b",
    "value": "0x1"
  },
  "id": 1
}