{
  "jsonrpc": "2.0",
  "result": {
    "blockHash": "0x2c83b485b4e9211e2296b4cafd4f19f7dcb16c24430c187d37e6d93f8fd4a802",
    "blockNumber": "0x1a3fa7",
    "creates": null,
    "from": "0x969837498944ae1dc0dcac2d0c65634c88729b2d",
    "gas": "0x47e7c4",
    "gasPrice": "0x0649534e00",
    "hash": "0x8471497131d77305416c760ebfed2b6d653c2066c51dac58c6551dcc7dfb3350",
    "input": "0x625e847d",
    "nonce": "0x0103",
    "raw": "0xf874820103850649534e008347e7c494c0ee9db1a9e07ca63e4ff0d5fb6f86bf68d47b8989058f65d356278e891084625e847d1ba0ad0946e575b53080830a864a7fa65605bdd06360abee7a7b83de718c7741e57ca021f3bc925a968ecece3731a483be323b9f7da55d338b3c44210fb1d2fbb2d7b8",
    "to": "0xc0ee9db1a9e07ca63e4ff0d5fb6f86bf68d47b89",
    "transactionIndex": "0x02",
    "value": "0x058f65d356278e8910"
  },
  "id": 1
}