{
  "jsonrpc": "2.0",
  "result": {
    "author": "0x61c808d82a3ac53231750dadc13c777b59310bd9",
    "difficulty": "0x38c3bf2616aa",
    "extraData": "0xe4b883e5bda9e7a59ee4bb99e9b1bc",
    "gasLimit": "0x47e7c0",
    "gasUsed": "0x014820",
    "hash": "0x94365e3a8c0b35089c1d1195081fe7489b528a84b22199c916180db8b28ade7f",
    "logsBloom": "0x00000000000000000000000000000000000000000000000000000000000000000000000000000000000000000000000000000000000000000000000000000000000000000000000000000000000000000000000000000000000000000000000000000000000000000000000000000000000000000000000000000000000000000000000000000000000000000000000000000000000000000000000000000000000000000000000000000000000000000000000000000000000000000000000000000000000000000000000000000000000000000000000000000000000000000000000000000000000000000000000000000000000000000000000000000000",
    "miner": "0x61c808d82a3ac53231750dadc13c777b59310bd9",
    "number": "0x1d4c00",
    "parentHash": "0xa218e2c611f21232d857e3c8cecdcdf1f65f25a4477f98f6f47e4063807f2308",
    "receiptsRoot": "0x7bda9aa65977800376129148cbfe89d35a016dd51c95d6e6dc1e76307d315468",
    "sealFields": [
      "0xc52daa7054babe515b17ee98540c0889cf5e1595c5dd77496997ca84a68c8da1",
      "0x05276a600980199d"
    ],
    "sha3Uncles": "0x1dcc4de8dec75d7aab85b567b6ccd41ad312451b948a7413f0a142fd40d49347",
    "size": 978,
    "stateRoot": "0x614d7d358b03cbdaf0343529673be20ad45809d02487f023e047efdce9da8aff",
    "timestamp": "0x578f7aa7",
    "totalDifficulty": "0x02240c16eb8a228d18",
    "transactions": [
      {
        "blockHash": "0x94365e3a8c0b35089c1d1195081fe7489b528a84b22199c916180db8b28ade7f",
        "blockNumber": "0x1d4c00",
        "creates": null,
        "from": "0x6ebeb2af2e734fbba2b58c5b922628af442527ce",
        "gas": "0x5208",
        "gasPrice": "0x04a817c800",
        "hash": "0x6f75b64d9364b71b43cde81a889f95df72e6be004b28477f9083ed0ee471a7f9",
        "input": "0x",
        "nonce": "0x01",
        "raw": "0xf86c018504a817c8008252089453d284357ec70ce289d6d64134dfac8e511c8a3d888b6cfa3afc058000801ba08d94a55c7ac7adbfa2285ef7f4b0c955ae1a02647452cd4ead03ee6f449675c6a067149821b74208176d78fc4dffbe37c8b64eecfd47532406b9727c4ae8eb7c9a",
        "to": "0x53d284357ec70ce289d6d64134dfac8e511c8a3d",
        "transactionIndex": "0x00",
        "value": "0x8b6cfa3afc058000"
      },
      {
        "blockHash": "0x94365e3a8c0b35089c1d1195081fe7489b528a84b22199c916180db8b28ade7f",
        "blockNumber": "0x1d4c00",
        "creates": null,
        "from": "0xee62a6740b3069781fc0ed138e94dcaa89f8eb05",
        "gas": "0x5208",
        "gasPrice": "0x04a817c800",
        "hash": "0x50d8156ee48d01b56cb17b6cb2ac8f29e1bf565be0e604b2d8ffb2fb50a0f611",
        "input": "0x",
        "nonce": "0x01",
        "raw": "0xf86d018504a817c8008252089453d284357ec70ce289d6d64134dfac8e511c8a3d890116db7272d6d94000801ca06d31e3d59bfea97a34103d8ce767a8fe7a79b8e2f30af1e918df53f9e78e69aba0098e5b80e1cc436421aa54eb17e96b08fe80d28a2fbd46451b56f2bca7a321e7",
        "to": "0x53d284357ec70ce289d6d64134dfac8e511c8a3d",
        "transactionIndex": "0x01",
        "value": "0x0116db7272d6d94000"
      },
      {
        "blockHash": "0x94365e3a8c0b35089c1d1195081fe7489b528a84b22199c916180db8b28ade7f",
        "blockNumber": "0x1d4c00",
        "creates": null,
        "from": "0x57ec8ef62a9af59b9fbbc6d7dba05516558f5018",
        "gas": "0x5208",
        "gasPrice": "0x04a817c800",
        "hash": "0x4677a93807b73a0875d3a292eacb450d0af0d6f0eec6f283f8ad927ec539a17b",
        "input": "0x",
        "nonce": "0x01",
        "raw": "0xf86c018504a817c8008252089453d284357ec70ce289d6d64134dfac8e511c8a3d8814da2c24e0d37014801ba0fdbbc462a8a60ac3d8b13ee236b45af9b7991cf4f0f556d3af46aa5aeca242aba05de5dc03fdcb6cf6d14609dbe6f5ba4300b8ff917c7d190325d9ea2144a7a2fb",
        "to": "0x53d284357ec70ce289d6d64134dfac8e511c8a3d",
        "transactionIndex": "0x02",
        "value": "0x14da2c24e0d37014"
      },
      {
        "blockHash": "0x94365e3a8c0b35089c1d1195081fe7489b528a84b22199c916180db8b28ade7f",
        "blockNumber": "0x1d4c00",
        "creates": null,
        "from": "0x80a103beced8a6854a7a82ac2d48cdab0eb21cc0",
        "gas": "0x5208",
        "gasPrice": "0x04a817c800",
        "hash": "0x2a5177e6d6cea40594c7d4b0115dcd087443be3ec2fa81db3c21946a5e51cea9",
        "input": "0x",
        "nonce": "0x01",
        "raw": "0xf86c018504a817c8008252089453d284357ec70ce289d6d64134dfac8e511c8a3d880e301365046d5000801ba0bafb9f71cef873b9e0395b9ed89aac4f2a752e2a4b88ba3c9b6c1fea254eae73a01cef688f6718932f7705d9c1f0dd5a8aad9ddb196b826775f6e5703fdb997706",
        "to": "0x53d284357ec70ce289d6d64134dfac8e511c8a3d",
        "transactionIndex": "0x03",
        "value": "0x0e301365046d5000"
      }
    ],
    "transactionsRoot": "0xd33068a7f21bff5018a00ca08a3566a06be4196dfe9e39f96e431565a619d455",
    "uncles": []
  },
  "id": 74
}